S01100002E2E2F50726F746575732E73313966
S32D0000C000000000205DC2000011C3000017C300001DC3000023C3000029C3000000000000000000000000000073
S32D0000C028000000002FC3000035C30000000000003BC3000041C3000021C900002DC9000039C9000045C900000E
S32D0000C05051C900005DC9000069C9000075C9000081C900008DC9000099C90000A5C90000B1C90000BDC90000A2
S32D0000C078C9C90000D5C90000E1C90000EDC90000F9C9000005CA000011CA00001DCA000029CA000035CA0000C5
S32D0000C0A041CA00004DCA000059CA000065CA000071CA00007DCA000089CA000095CA0000A1CA0000ADCA0000E8
S32D0000C0C8B9CA0000C5CA0000D1CA0000DDCA0000E9CA0000F5CA000001CB00000DCB000019CB000025CB00000C
S32D0000C0F031CB00008D1001003DCB000049CB000055CB000061CB00006DCB000079CB000085CB000091CB0000F8
S32D0000C1189DCB0000A9CB0000B5CB0000C1CB0000CDCB0000D9CB0000E5CB0000F1CB0000FDCB000009CC0000CC
S32D0000C14015CC000021CC00002DCC000039CC0000F9F2000045CC000051CC00005DCC000069CC000075CC00004D
S32D0000C16881CC00008DCC000099CC0000A5CC0000B1CC0000BDCC0000C9CC0000D5CC0000E1CC0000EDCC00008B
S32D0000C190F9CC000005CD000011CD000035F00000FDEE000099EF0000A5C60000D5F000001DCD000029CD000064
S32D0000C1B835CD0000E0E0050000000020C8170000E0E005000000FF1F00000000C81700201C1B00000000FF1F5C
S32D0000C1E00000000080B489B000AFF860B9607A60BB68FB61FB68BB6100237B617A697B689A420BD2BA69131DFB
S32D0000C208BB61FB69191DF96112681A607B6904337B61EFE700BF2437BD4680BC704780B485B000AF786039609E
S32D0000C2307B68FB600023BB60BA683B689A4208D2FB681A1DFA6000221A60BB680433BB60F2E700BF1437BD46FE
S32D0000C25880BC704780B586B000AF72B6234B4CF220521A80214B4DF628121A80204B4FF4E9721A801F4B7B615F
S32D0000C2807B691F4A934214D27B691A1D7A611B683B617B691A1D7A611B68FB607B691A1D7A611B68BB60BA68E9
S32D0000C2A8F9683869FFF79AFFE6E77B69134A93420ED27B691A1D7A611B68FB607B691A1D7A611B68BB60B9688B
S32D0000C2D0F868FFF7A8FFECE70B4B7B600B4A7B681A6037F0D7FC62B600F0A4FA00F0C8F8FEE700BF0E20054026
S32D0000C2F800200540BCC10000D4C10000E4C1000008ED00E000C0000080B400AFFEE780B400AFFEE780B400AFF4
S32D0000C320FEE780B400AFFEE780B400AFFEE780B400AFFEE780B400AFFEE780B400AFFEE780B400AFFEE780B426
S32D0000C34800AFFEE7FFFFFFFFFFFFFFFFFFFFFFFFFFFFFFFFFFFFFFFFFFFFFFFFFFFFFFFFFFFFFFFFFFFFFFFF57
S32D0000C370FFFFFFFFFFFFFFFFFFFFFFFFFFFFFFFFFFFFFFFFFFFFFFFFFFFFFFFFFFFFFFFFFFFFFFFFFFFFFFFFC7
S32D0000C398FFFFFFFFFFFFFFFFFFFFFFFFFFFFFFFFFFFFFFFFFFFFFFFFFFFFFFFFFFFFFFFFFFFFFFFFFFFFFFFF9F
S32D0000C3C0FFFFFFFFFFFFFFFFFFFFFFFFFFFFFFFFFFFFFFFFFFFFFFFFFFFFFFFFFFFFFFFFFFFFFFFFFFFFFFFF77
S32D0000C3E8FFFFFFFFFFFFFFFFFFFFFFFFFFFFFFFFFFFFFFFFFFFFFFFFFFFFFFFFFFFFFFFFFFFFFFFFFEFFFFFF50
S32D0000C44010B5054C237833B9044B13B10448AFF300800123237010BDC81700200000000050CE050008B5034BFF
S32D0000C4681BB103490348AFF3008008BD00000000CC17002050CE050080B500AF074800F011F84FF0000006497C
S32D0000C49002F098FB2421162000F04EF80023184680BD00BFE44505000000F03F80B584B000AF786000211D48F8
S32D0000C4B803F075FC6FF07F411A4803F0CCFC7968184803F08BFE1849164803F087FE07F1080207F10C0319465A
S32D0000C4E0124803F031FD034683F00103DBB2002B00D0F0E707F1080207F10C0319460B4803F022FD0346002B53
S32D0000C50800D0F3E7074803F060FC7968054803F065FE0649034803F061FE00BF1037BD4680BD00BF0C1B002001
S32D0000C530F44505000846050080B584B000AF786039601A4802F012FE194802F00FFE4FF00001184800F074FCFF
S32D0000C5580021174803F055FE4FF00001154800F06BFC0021124803F04CFE07F1080207F10C0319460E4803F092
S32D0000C580E3FC034683F00103DBB2002B00D0F0E70A4800F013FC074800F010FC0849064803F020FE00BF10373D
S32D0000C5A8BD4680BDE8170020EC170020F01700200C1B0020F81700201446050080B582B000AF786039607B687D
S32D0000C5D0012B3BD13B684FF6FF72934236D11D4805F0F6F81C4A1D491A4804F0F1FE1E211B4802F00DFB0021BA
S32D0000C5F81A4802F009FB1A4A00211A4800F09CFB174A0121184800F097FB184A0221184800F092FB0021174808
S32D0000C62003F018F80121164803F014F80821154802F0AEFD0821144802F0AAFD0821134802F0A6FD0C21124889
S32D0000C64802F0A2FD00BF0837BD4680BDE417002000000020F1170100E8170020EC17002000001041F0170020F7
S32D0000C670F81700200000A0400018002008180020141800202018002024180020281800202C18002080B500AF6D
S32D0000C6984FF6FF710120FFF791FF80BD80B500AF0F4BD3F8A03003F48053002B14BF01230023DBB2002B10D05B
S32D0000C6C0094BD3F8A030084A23F48053C2F8A030064804F00BFE064B1B68054A23F40053136000BF80BD00BF91
S32D0000C6E800C00440941B0020C0F00F4080B400AF124B4FF480725A63114B5B69104A43F4005353610E4B1B688C
S32D0000C7100D4A43F4005313600A4B0C4A1A630C4BD3F888310A4A43F08063C2F88831084B9B68074A43F080630A
S32D0000C738936000BFBD4680BC704700BF00C00440C0F00F4003010A0000E100E080B400AF334B00225A70324BD0
S32D0000C76098221A70304B9B79DBB203F01003002B14BF01230023DBB2002B00D0F2E72A4B9B79DBB29B08DBB259
S32D0000C78803F00303022B14BF01230023DBB2002B00D0F0E7224B18221A71214B00225A71204B03F580531A46C3
S32D0000C7B01F4B53641C4B54225A711B4B9B79DBB203F02003002B0CBF01230023DBB2002B00D0F2E7144B9B7964
S32D0000C7D8DBB203F04003002B0CBF01230023DBB2002B00D0F2E70E4B1B78DBB20C4A03F03F03DBB213700A4B69
S32D0000C8009B79DBB29B08DBB203F00303032B14BF01230023DBB2002B00D0F0E700231846BD4680BC704700BF63
S32D0000C82800400640007004400000130180B500AF314B03F580539B6B2F4A43F4785302F580529363FFF752FFE2
S32D0000C850FFF780FF2B4B58221A602A4B1B684FF47A7202FB03F3284A1360274B1B681A46234B03F580535B6C87
S32D0000C8781B0E03F00F030133B2FBF3F31A46214B1A601D4B03F58053DB6B1B4A43F0225302F58052D363184B6F
S32D0000C8A003F580531B6B164A43F0006302F580521363174B4FF480721A61642002F058F8134B5B69124A23F07B
S32D0000C8C810035361104B00221A600F4B10225A610E4803F007F902F0BFFC02F01DFD0C4802F0A4F80B4804F012
S32D0000C8F051FD4FF4FA6002F04FF900BF80BD00BF00700440581A0020541A00205C1A002000D003400C1B002076
S32D0000C918501A0020041C002080B500AFFFF70FFD00BF80BD80B500AFFFF709FD00BF80BD80B500AFFFF703FD8F
S32D0000C94000BF80BD80B500AFFFF7FDFC00BF80BD80B500AFFFF7F7FC00BF80BD80B500AFFFF7F1FC00BF80BD72
S32D0000C96880B500AFFFF7EBFC00BF80BD80B500AFFFF7E5FC00BF80BD80B500AFFFF7DFFC00BF80BD80B500AF98
S32D0000C990FFF7D9FC00BF80BD80B500AFFFF7D3FC00BF80BD80B500AFFFF7CDFC00BF80BD80B500AFFFF7C7FCD1
S32D0000C9B800BF80BD80B500AFFFF7C1FC00BF80BD80B500AFFFF7BBFC00BF80BD80B500AFFFF7B5FC00BF80BDAE
S32D0000C9E080B500AFFFF7AFFC00BF80BD80B500AFFFF7A9FC00BF80BD80B500AFFFF7A3FC00BF80BD80B500AFD4
S32D0000CA08FFF79DFC00BF80BD80B500AFFFF797FC00BF80BD80B500AFFFF791FC00BF80BD80B500AFFFF78BFC48
S32D0000CA3000BF80BD80B500AFFFF785FC00BF80BD80B500AFFFF77FFC00BF80BD80B500AFFFF779FC00BF80BDE9
S32D0000CA5880B500AFFFF773FC00BF80BD80B500AFFFF76DFC00BF80BD80B500AFFFF767FC00BF80BD80B500AF0F
S32D0000CA80FFF761FC00BF80BD80B500AFFFF75BFC00BF80BD80B500AFFFF755FC00BF80BD80B500AFFFF74FFCC0
S32D0000CAA800BF80BD80B500AFFFF749FC00BF80BD80B500AFFFF743FC00BF80BD80B500AFFFF73DFC00BF80BD25
S32D0000CAD080B500AFFFF737FC00BF80BD80B500AFFFF731FC00BF80BD80B500AFFFF72BFC00BF80BD80B500AF4B
S32D0000CAF8FFF725FC00BF80BD80B500AFFFF71FFC00BF80BD80B500AFFFF719FC00BF80BD80B500AFFFF713FC38
S32D0000CB2000BF80BD80B500AFFFF70DFC00BF80BD80B500AFFFF707FC00BF80BD80B500AFFFF701FC00BF80BD60
S32D0000CB4880B500AFFFF7FBFB00BF80BD80B500AFFFF7F5FB00BF80BD80B500AFFFF7EFFB00BF80BD80B500AF89
S32D0000CB70FFF7E9FB00BF80BD80B500AFFFF7E3FB00BF80BD80B500AFFFF7DDFB00BF80BD80B500AFFFF7D7FBB3
S32D0000CB9800BF80BD80B500AFFFF7D1FB00BF80BD80B500AFFFF7CBFB00BF80BD80B500AFFFF7C5FB00BF80BD9F
S32D0000CBC080B500AFFFF7BFFB00BF80BD80B500AFFFF7B9FB00BF80BD80B500AFFFF7B3FB00BF80BD80B500AFC5
S32D0000CBE8FFF7ADFB00BF80BD80B500AFFFF7A7FB00BF80BD80B500AFFFF7A1FB00BF80BD80B500AFFFF79BFB2B
S32D0000CC1000BF80BD80B500AFFFF795FB00BF80BD80B500AFFFF78FFB00BF80BD80B500AFFFF789FB00BF80BDDA
S32D0000CC3880B500AFFFF783FB00BF80BD80B500AFFFF77DFB00BF80BD80B500AFFFF777FB00BF80BD80B500AF00
S32D0000CC60FFF771FB00BF80BD80B500AFFFF76BFB00BF80BD80B500AFFFF765FB00BF80BD80B500AFFFF75FFBA2
S32D0000CC8800BF80BD80B500AFFFF759FB00BF80BD80B500AFFFF753FB00BF80BD80B500AFFFF74DFB00BF80BD16
S32D0000CCB080B500AFFFF747FB00BF80BD80B500AFFFF741FB00BF80BD80B500AFFFF73BFB00BF80BD80B500AF3C
S32D0000CCD8FFF735FB00BF80BD80B500AFFFF72FFB00BF80BD80B500AFFFF729FB00BF80BD80B500AFFFF723FB1A
S32D0000CD0000BF80BD80B500AFFFF71DFB00BF80BD80B500AFFFF717FB00BF80BD80B500AFFFF711FB00BF80BD51
S32D0000CD2880B500AFFFF70BFB00BF80BD80B500AFFFF705FB00BF80BD80B584B000AFF8600B467A60FB72FB68C0
S32D0000CD50FA7A1A71FB6800225A711749786834F03FFD0346002B02D0134B7B600AE04FF07E51786834F020FD2E
S32D0000CD780346002B02D04FF07E537B60786834F035F909A3D3E9002334F088F902460B461046194634F064FC28
S32D0000CDA00246FB681A60FB6818461037BD4680BDABAAAAAAAAAA20400000404180B582B000AF78607B685B7975
S32D0000CDC8002B09D07B6800225A717B6819791E230022034801F064FE00BF0837BD4680BD501A002080B584B0C2
S32D0000CDF000AF786039603B687F2B02DD7F23FB7308E03B6813F1800F02DA8023FB7301E03B68FB737B685B7905
S32D0000CE18FA7B9A4209D07B68FA7B5A717B681979FA7B1E23034801F03BFE00BF1037BD4680BD00BF501A002070
S32D0000CE40B0B584B000AF786039603749386834F0A9FC0346002B02D0334B3B6008E03349386834F0BDFC034699
S32D0000CE68002B01D02F4B3B60386834F0BFF804460D467B681B68184634F0B8F84FF00002294B34F035FA02468B
S32D0000CE900B462046294634F005F902460B461046194634F0E1FB03463B604FF00001386834F08CFC0346002BFA
S32D0000CEB810D0386834F09AF817A3D3E9002334F0EDF802460B461046194634F081FB0346FB6018E0386834F026
S32D0000CEE089F84FF00002134B34F0DCF802460B46104619464FF000020D4B34F0FDF902460B461046194634F099
S32D0000CF0867FB0346FB60F9687868FFF76BFF00BF1037BD46B0BD00BF52B81E85EB51F43F0000C8C20000C8426F
S32D0000CF30000059400000604080B483B000AF03460A46FB711346BB71BB79002B03D1134B00221A7002E0114B7F
S32D0000CF5801221A703823FB710E4B1A78FB791343FB710D4B9B78DBB20B4A43F01003DBB29370094B9B78DBB2FF
S32D0000CF80074A43F02003DBB29370054AFB79137100BF0C37BD4680BC704700BF2D1800200060064080B483B0DC
S32D0000CFA800AF01237B607B68312B04DC00BF7B6801337B60F7E700BF0C37BD4680BC704780B582B000AF0346A8
S32D0000CFD00A46FB711346BB71134B1B7800211846FFF7AAFF00F024F8104AFB79137100F01FF80E4ABB7913716E
S32D0000CFF800F01AF80B4B9B78DBB20A4A23F02003DBB29370074B9B78DBB2064A23F01003DBB29370FFF7C2FF4A
S32D0000D02000BF0837BD4680BD2E1800200060064080B483B000AF174B1B78002B24D100237B60154BDB78DBB22F
S32D0000D04803F00203002B0CBF01230023DBB2002B0DD07B6842F21072934203DD0B4B01221A7004E07B680133A4
S32D0000D0707B6000BFE5E7084BDB78DBB2064A43F00203DBB2D37000E000BF0C37BD4680BC704700BF2F180020A3
S32D0000D0980060064080B582B000AF0346FB71FB79184600F05FF800BF0837BD4680BD80B582B000AF03460A46F3
S32D0000D0C0FB711346BB7100F035F8FB795B00DBB21846FFF7E3FFBB791846FFF7DFFF00F037F800BF0837BD461C
S32D0000D0E880BD80B500AFFF2000F03CF80346184680BD80B584B000AF0346FB7100F016F8FB795B005BB243F0F8
S32D0000D11001035BB2DBB21846FFF7C0FFFFF7E5FF0346FB7300F014F8FB7B18461037BD4680BD000080B400AF75
S32D0000D138044B9B68034A43F48013936000BFBD4680BC704740F00F4080B400AF044B5B68034A43F4801353607A
S32D0000D16000BFBD4680BC704740F00F4080B485B000AF0346FB710023BB73164BDB6A03F00043012B0CBF012358
S32D0000D1880023DBB2002B03D0FB7B0133FB73F0E70E4BDB6A0D4A43F00043D3620B4AFB7953630A4BDB6A03F42C
S32D0000D1B00033002B0CBF01230023DBB2002B00D0F3E7044B9B6BBB73BB7B18461437BD4680BC704700C00A401D
S32D0000D1D880B582B000AF204B03F580531B6B1E4A43F4805302F5805213631C4B4FF480721A651B4B5B691A4AFD
S32D0000D20043F480135361FFF7A3FF164B4FF400725A65144B4FF400729A65124B4FF40072DA65124B124A1A607E
S32D0000D228104B124ADA6000237B607B68092B06DCFF20FFF72FFF7B6801337B60F5E704A1D1E9000101F0BAFCD8
S32D0000D25000BF0837BD4680BD9A9999999999B93F0070044000A0044040F00F4000C00A40000C00800500003EF3
S32D0000D27890B486B000AFF860B9607A60FB68534A93420AD1524B03F580535B6B504A43F4806302F58052536303
S32D0000D2A045E0FB684D4A93420AD14B4B03F580535B6B494A43F4006302F58052536336E0FB68474A93420AD104
S32D0000D2C8434B03F580535B6B414A43F4805302F58052536327E0FB68404A93420AD13C4B03F580535B6B3A4AC5
S32D0000D2F043F4005302F58052536318E0FB683A4A93420AD1344B03F580539B6A324A43F4806302F580529362D5
S32D0000D31809E02F4B03F580539B6A2D4A43F4006302F580529362FB68DB78DBB223F00C03DAB2FB68DA70FB68E4
S32D0000D34000229A70BB684FF47A7203FB02F27B681B0192FBF3F39CB2FB681B78DBB223F01F03FB75230A9BB2ED
S32D0000D368DBB203F01F03DAB2FB7D1343DAB2FB681A70E2B2FB685A70BB684FF4FA4203FB02F27B681B0192FB41
S32D0000D390F3F39AB263019BB2D31A9CB2FB689B7ADBB223F01F03FB75E3B203F01F03DAB2FB7D1343DAB2FB68B4
S32D0000D3B89A72FB68DB78DBB243F00C03DAB2FB68DA7000BF1837BD4690BC704700A006400070044000B00640D9
S32D0000D3E000C0064000D0064000A00E4080B483B000AF78607B681B79DBB203F02003002B0CBF01230023DBB243
S32D0000D408002B00D0F2E77B68DB79DBB218460C37BD4680BC704780B483B000AF78600B46FB707B681B79DBB219
S32D0000D4305BB2DB43DBB2DB09DBB2002B00D0F4E77B68FA78DA7100BF0C37BD4680BC704780B487B000AFF860C5
S32D0000D458B9607A60FB687B617B685A1E7A60002B14BF01230023DBB2002B06D07B695A1C7A61BA68D2B21A7007
S32D0000D480EEE700BF1C37BD4680BC704780B584B000AF786039607B681B6BFB60FA683B689A4252D07B681B79DA
S32D0000D4A8002B35D07B6858787B6803F134010123FA6801F0F7F80346002B14BF01230023DBB2002B01D00123C6
S32D0000D4D03CE07B6800221A717B685A6A7B681B6A1344FA689A4217D27B68DB78FB72FB7A012B11D97B681B6A5F
S32D0000D4F8FA681344FB607B6858787B6803F134010123FA6801F0CEF8FB7A013BFB72EAE73B68002B15D07B6871
S32D0000D52058787B6803F1340101233A6800F0DAFF0346002B14BF01230023DBB2002B01D0012303E07B683A68CF
S32D0000D5481A63002318461037BD4680BD80B584B000AF786000217868FFF794FF0346FB73FB7B002B40F093801B
S32D0000D5707B681B78032B7DD17B685B79002B79D07B6800221A637B6834334FF4007200211846FFF75DFF7B683B
S32D0000D598552283F832227B68AA2283F833227B68522283F834207B68522283F835207B68612283F836207B6839
S32D0000D5C0412283F837207B68722283F818227B68722283F819227B68412283F81A227B68612283F81B227B68B1
S32D0000D5E81B69DAB27B6883F81C227B681B699BB21B0A9BB2DAB27B6883F81D227B681B691B0CDAB27B6883F8A2
S32D0000D6101E227B681B691B0EDAB27B6883F81F227B68DB68DAB27B6883F820227B68DB689BB21B0A9BB2DAB22E
S32D0000D6387B6883F821227B68DB681B0CDAB27B6883F822227B68DB681B0EDAB27B6883F823227B6858787B6894
S32D0000D66003F134017B685A69012301F01FF87B6800225A717B685B7800220021184601F0E1F80346002B14BF69
S32D0000D68801230023DBB2002B01D00123FB73FB7B18461037BD4680BD80B582B000AF78600B467B807B68002B6F
S32D0000D6B008D07B681B78002B04D07B68DB887A889A4201D0092311E07B685B78184601F03BF9034603F0010374
S32D0000D6D8002B14BF01230023DBB2002B01D0032300E0002318460837BD4680BD80B586B000AF78607B681A68F9
S32D0000D7007B689B8819461046FFF7CAFF0346FB75FB7D002B40F0AC807B689B7903F02003002B00F0A5807B6899
S32D0000D7289B7903F04003002B1BD07B681B6858787B6803F128017B689A69012300F0B2FF0346002B14BF012327
S32D0000D7500023DBB2002B01D001238AE07B689B7923F04003DAB27B689A717B681A687B68DB6919461046FFF773
S32D0000D77889FE0346FB75FB7D002B75D17B681B6A3B613B690B331A783B690B3342F02002D2B21A707B68DA6879
S32D0000D7A03B691C33D2B21A707B68DB689BB21B0A9AB23B691D33D2B21A707B68DB681A0C3B691E33D2B21A7025
S32D0000D7C87B68DB681A0E3B691F33D2B21A707B681A693B691A33D2B21A707B681B699BB21B0A9AB23B691B3365
S32D0000D7F0D2B21A707B681B691A0C3B691433D2B21A707B681B691B0C9BB21B0A9AB23B691533D2B21A7000230E
S32D0000D818FB603B691633FA68D2B21A70FB689BB21B0A9AB23B691733D2B21A70FB681A0C3B691833D2B21A7087
S32D0000D840FB681A0E3B691933D2B21A707B689B7923F02003DAB27B689A717B681B6801221A717B681B681846B2
S32D0000D868FFF774FE0346FB75FB7D18461837BD4680BD80B584B000AF78607868FFF736FF0346FB73FB7B002BB9
S32D0000D89002D17B6800221A60FB7B18461037BD4680BD000080B588B000AF7860396080233B610F23FB604FF025
S32D0000D8B8FF337B610223FB61FB69B3F5807F23D80123BB61BB69102B1AD8FB69BA6902FB03F33A6803FB02F20E
S32D0000D8E07B68D31ABB60BB68002B09DBBB687A699A4205D9BB687B61FB693B61BB69FB60BB690133BB61E1E783
S32D0000D908FB695B00FB61D7E71D4BDB6A1C4A23F00803D3621A4BDB6A23F47F2323F47F63BB613B695B081B0216
S32D0000D9309AB2FB68013B1B01DBB21A43BB691343114A43F46023D3620F4B5B6A03F00803002B0CBF01230023BA
S32D0000D958DBB2002B03D00A2001F01AF9F0E7084BDB6A074A43F00803D362054B1B6B044A43F48013136300BF92
S32D0000D9802037BD4680BD00BF00100B4080B582B000AF786039607B6800221A60414B424ADA62404BDB6A03F0AB
S32D0000D9A88073002B14BF01230023DBB2002B00D0F3E73A4B0022C3F8C020384B4FF481325A60364B28229A627B
S32D0000D9D0344B4FF001125A643B689B6833491846FFF760FF2F4B5B6A03F00303002B14BF01230023DBB2002B90
S32D0000D9F800D0F3E72C4B40F243421A602A4B40F243425A60284B4FF488629A60264B40F24342DA60244B40F22C
S32D0000DA2043421A61224B40F243425A61214B03F580531B6B1F4A43F4003302F580521363184B4FF6FF721A6394
S32D0000DA48164B1B4A5A63154BDB6A144A43F00063D362124BDB6A03F00063002B14BF01230023DBB2002B00D09A
S32D0000DA70F3E70C4B5B6A03F48033002B14BF01230023DBB2002B02D07B6801221A60054B1B6B044A43F08003BF
S32D0000DA981363002318460837BD4680BD00100B400080000160CC050000D0044000700440B3007F0080B400AF00
S32D0000DAC0064B5A6A40F207331340002B14BF01230023DBB21846BD4680BC704700100B4080B485B000AF7860F3
S32D0000DAE8074B1B6B7A681340FB60FB68002B00D1F6E7FB6818461437BD4680BC704700BF00100B4080B584B0E7
S32D0000DB1000AF78607B681B7803F03F03764A52F82330FB60FB68002B05D17B681B78002B01D00123DCE0714B8B
S32D0000DB381B6B704A43F0800313636E4B5B6A03F00103002B14BF01230023DBB2002B00D0F3E7684A7B685B68DF
S32D0000DB609360FB6823F44003FB607B685B789B0503F44003FA681343FB607B685B78022B03D1FB6843F4001385
S32D0000DB88FB607B685B78042B16D1FB6803F44033B3F5003F08D1FB6823F44033FB60FB6843F44033FB6007E024
S32D0000DBB0FB6823F44033FB60FB6843F40033FB604E4B5B684D4A9BB253607B68DB68002B2AD0FB6803F44033CC
S32D0000DBD8B3F5403F03D0FB6843F40013FB607B681B7A002B03D0FB6843F01003FB607B68DB68012B03D9FB6812
S32D0000DC0043F02003FB607B68DB68B3F1FF3F0BD03A4B5A687B68DB681B04384913434B60FB6843F00203FB605E
S32D0000DC28344B00221A60334AFB68D3603248FFF753FF0346012B14BF01230023DBB2002B09D02C4B1B6B2B4A4C
S32D0000DC5043F4702343F001031363012348E0274B1B6B03F08003002B14BF01230023DBB2002B07D0214B1B6BAF
S32D0000DC78204A43F001131363012335E01D4B1B6B03F48033002B14BF01230023DBB2002B08D0184B1B6B174A67
S32D0000DCA043F0011313634FF0FF3321E0FB6803F44033002B15D0114B1A697B681A61FB6803F44033B3F5803FD9
S32D0000DCC80BD10C4B5A697B685A610A4B9A697B689A61084BDA697B68DA61064B1B6B054A43F0010313630023BA
S32D0000DCF018461037BD4680BD2846050000100B4001000E0080B592B000AF7860396000237B643B68BB63994B06
S32D0000DD187B637B6B002B02D140F601235FE3964B3B633B6B002B02D140F60B2357E33B6B1B68FB62FB6A002BA8
S32D0000DD4002D140F60B234EE37B6841F20932934200F23F837B68B3F5985F08D87B68032B00F01A837B68092B5C
S32D0000DD6800F0098331E37B68A3F59853013B082B00F22B8301A252F823F000BFA9DD000095E00000F1E20000FB
S32D0000DD90ABE00000E9E000000FE2000057E2000099E10000B3E100007649786BFFF7EEFD78647B6C002B40F038
S32D0000DDB81083002387F84330002387F82B30002387F82A30002387F82930002387F84230002387F82830002370
S32D0000DDE03B7200237B720023FB6000233B7400237B6107F108031846FFF788FE0346002B14BF01230023DBB211
S32D0000DE08002B02D001237B64E8E240F24C4000F0BFFE08233B7200237B724FF4D573FB6000233B7400237B6118
S32D0000DE3007F108031846FFF769FEF863FB6B002B09D1BA69FB689A4202D001237B64C9E2012387F84230012325
S32D0000DE5887F8283097F82830002B00F0A58037233B7200237B720023FB6000233B7400237B6107F108031846D7
S32D0000DE80FFF744FEF863FB6B002B02D001237B64A8E269233B7200237B720023FB6000233B7400237B6107F161
S32D0000DEA808031846FFF72EFE0346002B14BF01230023DBB2002B02D001237B648EE2BB6903F44013002B6FD05E
S32D0000DED00023FB630A2000F05FFEFB6B0133FB6337233B7200237B720023FB6000233B7400237B6107F10803CB
S32D0000DEF81846FFF707FE0346002B14BF01230023DBB2002B02D001237B6428E069233B7200237B7297F8423036
S32D0000DF20002B02D0184BFB6002E04FF44013FB6000233B7400237B6107F108031846FFF7E5FD0346002B14BFF4
S32D0000DF4801230023DBB2002B02D001237B6406E0BB69002B03DBFB6B632B00D8B6E77B6C002B40F03882FB6BF9
S32D0000DF70632B0BD9002387F8423019E044180020481A00201C46050000003040012387F8433097F84230002BED
S32D0000DF980AD0002387F84230BB6903F08043002B02D0012387F8423097F82A30002B02D07B6B07221A6097F883
S32D0000DFC02930002B02D07B6B08221A6097F82B30002B02D07B6B04221A6097F84330002B09D07B6B02221A605C
S32D0000DFE897F84230002B02D07B6B03221A6097F82B30002B0DD097F84330002B09D07B6B05221A6097F8423008
S32D0000E010002B02D07B6B06221A60924B00221A60904B00225A608F4B00229A608D4B0022DA608C4B00221A618F
S32D0000E0388A4B00225A61FB6A9A68FB6A5B6819461046FFF72BFC854B40F243421A60834B40F243425A60814B9B
S32D0000E0604FF488629A607F4B40F24342DA607D4B40F243421A617B4B40F243425A617A4B03F580531B6B784AA6
S32D0000E08843F4003302F580521363A7E1B86BFFF739FDF863FB6B002B00F09F8102237B649BE1BB6B002B02D14A
S32D0000E0B00C237B6496E16D4BDB6A1B0A5B0003F4FF73FB63694BDB6A1B0903F00F035A1CFB6B02FB03F3FB632A
S32D0000E0D8FB6A9A68FB6BB2FBF3F2BB6B1A607DE1BB6B002B02D10C237B6477E1BB6B1B68002B02D10C237B647E
S32D0000E10070E1FFF7DBFC0346002B0CBF01230023DBB2002B3CD0534B00221A60514B00225A60504B00229A6020
S32D0000E1284E4B0022DA604D4B00221A614B4B00225A61FB6A9A68BB6B1B6819461046FFF7ADFB464B40F2434281
S32D0000E1501A60444B40F243425A60424B4FF488629A60404B40F24342DA603E4B40F243421A613C4B40F24342FE
S32D0000E1785A613B4B03F580531B6B394A43F4003302F58052136329E140F60A237B6425E1BB6B002B02D10C2316
S32D0000E1A07B641FE1314B5B68C3F30C02BB6B1A6018E1BB6B002B02D10C237B6412E1FFF77DFC0346002B0CBF03
S32D0000E1C801230023DBB2002B19D0BB6B1B68B3F5805F02D30C237B6400E1224B5B68214A23F4FF5323F01F0314
S32D0000E1F053601E4B5A68BB6B1B68C3F30C031B4913434B60EEE040F60A237B64EAE0BB6B002B02D10C237B6444
S32D0000E218E4E0144B9B6A5B0803F00303FB63FB6B002B03D1BB6B00221A60D7E0FB6B012B03D1BB6B01221A60EF
S32D0000E240D0E0FB6B102B03D1BB6B02221A60C9E005237B64C6E0BB6B002B09D10C237B64C0E000BF00D00440C5
S32D0000E2680070044000100B40FFF724FC0346002B0CBF01230023DBB2002B31D0BB6B1B68002B0AD1584B9B6ACD
S32D0000E290574A23F006039362554B554A9B6A9362A0E0BB6B1B68012B0CD1514B9B6A504A23F0060393624E4B5E
S32D0000E2B89B6A4D4A43F0020393628FE0BB6B1B68022B0AD1484B9B6A474A23F006039362454B454A9B6A9362FC
S32D0000E2E080E005237B647DE040F60A237B6479E0BB6B002B02D10C237B6473E03C4BDB6A3B4A43F00063D36210
S32D0000E308394BDB6A03F00063002B14BF01230023DBB2002B00D0F3E7334B1B6B03F08003002B14BF0123002362
S32D0000E330DBB2002B08D02E4B1B6B2D4A43F0800313637B6B00221A60294B5B6A03F48033002B14BF01230023E3
S32D0000E358DBB2002B07D07B6B1B68002B06D17B6B01221A6002E07B6B00221A607B6B1A68BB6B1A6032E0BB6B76
S32D0000E3801C221A60BB6B043304221A60BB6B08334FF41E721A6025E00220FFF7A1FB144B1B6B03F4E003002B69
S32D0000E3A814BF01230023DBB2002B07D00E4B1B6B0D4A43F4E003136304237B640A4B1B6B094A43F032031363C6
S32D0000E3D008E040F609237B6404E000BF02E000BF00E000BF7B6C18464837BD4680BD00BF00100B4080B489B088
S32D0000E3F800AF786039607B687B61364B3B613B69002B01D100235FE03B691B68022B0BD03B691B68032B07D09D
S32D0000E4203B691B68072B03D03B691B68082B0BD12B4B5B6A03F00403002B14BF01230023DBB2002B00D0F3E790
S32D0000E4483B68FB61FB69002B3DD0FB69B3F5007F28BF4FF40073FB60FB6803339B08BB61BB69002B2AD01C4B80
S32D0000E4701B6B03F4E003002B14BF01230023DBB2002B09D0164B1B6B154A43F4E00343F02003136300231BE0FE
S32D0000E498114B5B6A03F40063002B0CBF01230023DBB2002B00D0F3E70B497B691A1D7A610A6A1A60BB69013BA4
S32D0000E4C0BB61D1E7FA69FB68D31AFB61BEE7012318462437BD4680BC704700BF4418002000100B4080B58EB0CA
S32D0000E4E800AFB9607A601A460346FB731346BB73414B7B63FB7B002B02D1BB7B002B01D1042375E03D4B1B781E
S32D0000E510DBB203F00103002B14BF01230023DBB2002B01D0032367E0BB68002B01D1002362E07B6B1B7B002BF2
S32D0000E53802D17B685B027B60BB7B012B28D111233B7500237B757B68BB6101233B77BB7B3B6207F1140319465F
S32D0000E56041F20230FFF7CEFB0346002B0CBF01230023DBB2002B38D04FF40071B868FFF739FF0346002B14BFDA
S32D0000E58801230023DBB2002B2BD00023BB7328E012233B7500237B757B68BB6101233B77BB7B3B6207F1140363
S32D0000E5B0194641F20230FFF7A5FB0346002B0CBF01230023DBB2002B0FD0BB7B5B021946B868FFF70FFF034667
S32D0000E5D8002B14BF01230023DBB2002B01D00023BB73BB7B002B01D0012300E0002300BF18463837BD4680BDD1
S32D0000E600301800200400002080B487B000AF786039607B68FB603B687B617B69002B3DD07B69B3F5007F28BF0A
S32D0000E6284FF400733B617A693B69D31A7B613B6903339B083B613B69002BEAD0184B1B6B03F4E003002B14BFBF
S32D0000E65001230023DBB2002B0AD0134B1B6B124A43F4E00343F0100313634FF0FF3316E00D4B5B6A03F480634F
S32D0000E678002B0CBF01230023DBB2002B00D0F3E7FB681A1DFA60064A1B6813623B69013B3B61D0E701231846E4
S32D0000E6A01C37BD4680BC704700100B4080B58EB000AFB9607A601A460346FB731346BB735D4B7B63FB7B002BCE
S32D0000E6C802D1BB7B002B01D10423ADE0594B1B78DBB203F00103002B14BF01230023DBB2002B01D003239FE03C
S32D0000E6F0524B1B78DBB203F00403002B14BF01230023DBB2002B01D0022391E0BB68002B01D100238CE07B6B4C
S32D0000E7181B7B002B02D17B685B027B60BB7B012B28D118233B7500237B757B68BB6100233B77BB7B3B6207F12C
S32D0000E7401403194641F20230FFF7DCFA0346002B0CBF01230023DBB2002B38D04FF40071B868FFF751FF03465B
S32D0000E768002B14BF01230023DBB2002B2BD00023BB7328E019233B7500237B757B68BB6100233B77BB7B3B628C
S32D0000E79007F11403194641F20230FFF7B3FA0346002B0CBF01230023DBB2002B0FD0BB7B5B021946B868FFF7C0
S32D0000E7B827FF0346002B14BF01230023DBB2002B01D00023BB730D233B7500237B757B6B1B69BB6100233B7757
S32D0000E7E000233B6207F11403194641F20230FFF789FA0346002B14BF01230023DBB2002B01D0012314E07A6AEC
S32D0000E8080D4B1340002B01D001230DE07B6A03F4F853B3F5106F00D0D5E7BB7B002B01D0012300E0002300BF38
S32D0000E83018463837BD4680BD30180020040000200880D9FF80B58CB000AF03463A60FB710B46BB713A4BBB6233
S32D0000E858FB79002B01D0042369E0012387F82F30364B1B78DBB203F00103002B14BF01230023DBB2002B01D04A
S32D0000E880032358E0BB79032B50D801A252F823F0A1E80000A9E80000B9E80000C9E80000002387F82F3044E0F1
S32D0000E8A8BB6A9A683B681A60002387F82F303CE03B684FF400721A80002387F82F3034E009233B7200237B72F1
S32D0000E8D0BB6A1B69FB6000233B7400237B6107F10803194641F20230FFF70CFA0346002B14BF01230023DBB267
S32D0000E8F8002B01D001231AE07B6A03F44003002B0CD13B6A9B0C03F07F035A1C7B6A1B0A03F00303013B9A4061
S32D0000E9203B681A60002387F82F3002E0042387F82F3097F82F3018463037BD4680BD00BF301800200400002086
S32D0000E94880B483B000AF0346FB71FB79002B01D0012302E0034B1B78DBB218460C37BD4680BC70470400002037
S32D0000E97080B483B000AF7860164B03F580539B6B144A43F0010302F580529363124A7B689360114B05225A6096
S32D0000E9980F4B1B680E4A43F0010313600C4B1B6803F08003002B0CBF01230023DBB2002B00D0F3E7064B1B68AF
S32D0000E9C0054A23F00103136000BF0C37BD4680BC704700BF007004400000044080B582B000AF786039607B6837
S32D0000E9E8012B07D13B684FF6FF72934202D1034800F00EF800BF0837BD4680BD501A002080B500AF4FF6FF715A
S32D0000EA100120FFF7E3FF80BD80B483B000AF78607B6800221A707B6818460C37BD4680BC7047000080B582B044
S32D0000EA3800AF78607B681B7883F00103DBB2002B21D0134B03F580531A464FF400639362104B4FF440721A62A3
S32D0000EA600E4B4FF440725A620D4B1B68DA0F13445B104FF4614219460A48FEF7FDFB642000F08AF87B68012278
S32D0000EA881A70012300E0002318460837BD4680BD0070044000D00440541A002000B00E4080B582B000AF786090
S32D0000EAB0084611461A460346FB700B46BB7013467B707F210E48FEF7AAFC08210C48FEF7A6FCFB7819460A48F6
S32D0000EAD8FEF7A1FCBB7819460748FEF79CFC7B7819460548FEF797FCFF210348FEF793FC00BF0837BD4680BDBC
S32D0000EB0000B00E4080B487B000AFF860B9607A60FB681F4AA2FB03239B09BA6813447B61FB681B4AA2FB031282
S32D0000EB2892094FF47A7101FB02F29B1AFB60FB68DB03154AA2FB03239B097A6813443B613B69DB0B7A69134456
S32D0000EB507B613B69C3F30E033B610E4B1B687A699A4209D80B4B1B687A699A4206D1094B5B683A699A4201D959
S32D0000EB78012300E00023002B00D0EAE700BF1C37BD4680BC704700BFD34D621000D0034080B584B000AF786020
S32D0000EBA0074B1B68FB60064B5B68BB607B68BA68F9681846FFF7A6FF00BF1037BD4680BD00D0034080B584B0C7
S32D0000EBC800AFC7E900010E4B1B68FB600C4B5B68BB604FF000020B4BD7E9000132F05EFA02460B461046194633
S32D0000EBF032F01AFD0346BA68F9681846FFF782FF00BF1037BD4680BD00D0034000408F4080B584B000AF7860C5
S32D0000EC180B46FB700B23FB73FA7BFB781946786800F094F87B6818461037BD4680BD000080B485B000AF78601B
S32D0000EC407B68103B002B00DA1F335B11FB60FB68022B53D0FB68022B75DCFB68002B03D0FB68012B25D06EE093
S32D0000EC68394BD3F880217B68103B594203F01F0301F01F0158BF4B42012101FA03F332491343C1F88031304B32
S32D0000EC901A687B68103B594203F01F0301F01F0158BF4B42012101FA03F3294913430B6049E0274BD3F88421F0
S32D0000ECB87B68103B594203F01F0301F01F0158BF4B42012101FA03F31F491343C1F884311D4B5A687B68103B04
S32D0000ECE0594203F01F0301F01F0158BF4B42012101FA03F3164913434B6024E0144BD3F888217B68103B59428E
S32D0000ED0803F01F0301F01F0158BF4B42012101FA03F30D491343C1F888310B4B9A687B68103B594203F01F03AC
S32D0000ED3001F01F0158BF4B42012101FA03F3044913438B6000BF00BF1437BD4680BC704700E100E080B584B076
S32D0000ED5800AF78600B46FB701346BB707B68FA781A70BB78FB737B681B781A46574B9B5C042B00F2A68001A2ED
S32D0000ED8052F823F099ED0000E5ED000031EE0000C9EE00007DEE0000FB7B1B0403F470234D497A6812781046F8
S32D0000EDA84C4A52F8202043F4897343F0010341F82230494B5A697B681B781946454B53F8213003F01F03012199
S32D0000EDD001FA03F3DB43424913404B616720FFF72BFF72E0FB7B1B0403F470233D497A6812781046394A52F84F
S32D0000EDF8202043F4897343F0010341F82230384B5A697B681B781946324B53F8213003F01F03012101FA03F35C
S32D0000EE20DB43314913404B616820FFF705FF4CE0FB7B1B0403F470232C497A6812781046264A52F8202043F4F8
S32D0000EE48897343F0010341F82230274B5A697B681B7819461F4B53F8213003F01F03012101FA03F3DB4320491F
S32D0000EE7013404B616920FFF7DFFE26E0FB7B1B0403F470231B497A6812781046134A52F8202043F4897343F081
S32D0000EE98010341F82230164B5A697B681B7819460C4B53F8213003F01F03012101FA03F3DB430F4913404B6134
S32D0000EEC06B20FFF7B9FE00E000BF00BF1037BD4680BD00BF28470500009004406C47050000F00F4000A0044025
S32D0000EEE840F00F4000B0044080F00F4000D0044000F10F40B0B48BB000AF224B3C1D1D460FCD0FC495E80F00C4
S32D0000EF1084E80F0000237B627B6A072B30DC1C4BD3F8A0207B6A9B0028333B4453F8243C012101FA03F31340D8
S32D0000EF38002B14BF01230023DBB2002B18D0134A7B6A52F823305A1C10497B6A41F823200D4BD3F8A0207B6AEF
S32D0000EF609B0028333B4453F8243C012101FA03F307491340C1F8A0307B6A01337B62CBE700BF2C37BD46B0BCEB
S32D0000EF88704700BF7048050000A00440801A0020B0B489B000AF224B3C1D1D460FCD0FC495E8030084E8030077
S32D0000EFB00023FB61FB69052B30DC1C4BD3F8A020FB699B0020333B4453F81C3C012101FA03F31340002B14BF4A
S32D0000EFD801230023DBB2002B18D0FB690833124A52F823200132104941F823200D4BD3F8A020FB699B0020335F
S32D0000F0003B4453F81C3C012101FA03F307491340C1F8A030FB690133FB61CBE700BF2437BD46B0BC704700BFDC
S32D0000F0289048050000B00440801A0020B0B48DB000AF234B3C461D460FCD0FC40FCD0FC495E8070084E8070037
S32D0000F0500023FB62FB6A0A2B30DC1C4BD3F8A020FB6A9B0030333B4453F8303C012101FA03F31340002B14BF7D
S32D0000F07801230023DBB2002B18D0FB6A0E33124A52F823200132104941F823200D4BD3F8A020FB6A9B003033A6
S32D0000F0A03B4453F8303C012101FA03F307491340C1F8A030FB6A0133FB62CBE700BF3437BD46B0BC704700BF16
S32D0000F0C8A848050000900440801A0020B0B487B000AF214B3C461D460FCD0FC42B68236000237B617B69042B25
S32D0000F0F030DC1C4BD3F8A0207B699B0018333B4453F8183C012101FA03F31340002B14BF01230023DBB2002BA9
S32D0000F11818D07B691933124A52F823200132104941F823200D4BD3F8A0207B699B0018333B4453F8183C0121D3
S32D0000F14001FA03F307491340C1F8A0307B6901337B61CBE700BF1C37BD46B0BC704700BFD448050000D00440B2
S32D0000F168801A002080B483B000AF78607B681B781946044B002243F8212000BF0C37BD4680BC7047801A00205D
S32D0000F19080B483B000AF78600B46FB707B68FA781A707B6818460C37BD4680BC7047000080B586B000AF78605C
S32D0000F1B87B681B781A46234B53F822303B617B681B781A46204B9B5CFB733B69DBB203F01F03DAB21D4B1A7240
S32D0000F1E03B69DBB203F01F03DAB21A4B5A72FB7B002B13D11749184800F0CEF9164B1B6803F08003802B14BF2A
S32D0000F20801230023DBB2002B00D0F3E7104B1B697B6112E00D490F4800F0BAF90D4B1B6803F08003802B14BF63
S32D0000F23001230023DBB2002B00D0F3E7074B1B697B617B6918461837BD4680BDEC47050048470500701A00200E
S32D0000F25800B0034000B00B4098B500AF204B5C221A701F4B10225A701D4B41F234225A801B4B45F278629A8069
S32D0000F280194B10229A71184B0722DA71164B4FF4C022DA60144B1F221A72134B1F225A721149124800F078F97C
S32D0000F2A80F49114800F074F90F4800F0D2F80D4800F0CFF80A490C4800F06AF90849094800F066F9094A064B7E
S32D0000F2D014460FCB84E80F00064B5C221A70054B0422DA7100BF98BD601A002000B0034000B00B40701A002001
S32D0000F2F880B500AF064B1B680133054A136000F03DF8044B0122C3F80C2100BF80BD00BF041B0020007003400E
S32D0000F32080B500AF0C4B01221A600C4800F01AF8094B0322C3F80821094BD3F88831084A43F01003C2F8883151
S32D0000F348054B9B68044A43F01003936000BF80BD00700340A086010000E100E080B483B000AF7860044A7B6807
S32D0000F370C2F8003100BF0C37BD4680BC704700BF0070034080B584B000AF174B1B68FB60FB68002B24D0FB68DD
S32D0000F3985B78FB71FB689B68184600F023F80346BB71BB79002B13D0FB685B68012B0FDDFB689B681B69BB603F
S32D0000F3C0BB68002B08D0BB685B685A1CBB685A60BB681B69BB60F3E7FB68DB68FB60D7E700BF1037BD4680BD1F
S32D0000F3E8001B002080B584B000AF78607868FFF7DBFEF8607B689B695B78FB72FB7A002B0FD17B68DB68FA6896
S32D0000F4109A420ADD7B689B6901225A707B685B685A1C7B685A60012313E0FB7A012B0FD17B689B68FA689A42C2
S32D0000F4380ADA7B689B6900225A707B685B685A1C7B685A60012300E0002318461037BD4680BD80B485B000AF12
S32D0000F46078607B681B6A23F040027B681A627B685B6A23F00B027B685A627B685B6A43F007027B685A627B68BD
S32D0000F4885B6A43F080027B685A627B681B6803F08003002B0CBF01230023DBB2002B00D0F3E77B685B6A03F027
S32D0000F4B04003402B0CBF01230023DBB2002B01D0012364E00023FB817B68DB6CFB817B689B6C9AB2FB89134427
S32D0000F4D8FB817B685B6C9AB2FB891344FB817B681B6C9AB2FB891344FB817B68DB6B9AB2FB891344FB817B6881
S32D0000F5009B6B9AB2FB891344FB81FB895B08FB81FB896FEA43436FEA5343FB81FA897B68DA620023FB817B68DF
S32D0000F528DB6EFB817B689B6E9AB2FB891344FB817B685B6E9AB2FB891344FB817B681B6E9AB2FB891344FB8103
S32D0000F5507B68DB6D9AB2FB891344FB817B689B6D9AB2FB891344FB81FB895B08FB81FB896FEA43436FEA53437C
S32D0000F578FB81FA897B681A637B685B6A23F080027B685A62002318461437BD4680BC704780B483B000AF78607A
S32D0000F5A039603B681B781A467B689A603B685B781A467B68DA603B685B881A467B689A613B689B881A467B6871
S32D0000F5C8DA613B689B791A467B681A623B68DB791A467B685A623B68DA687B681A653B681B7A1A467B681A6032
S32D0000F5F03B685B7A1A467B685A6000BF0C37BD4680BC704780B483B000AF78607B6818460C37BD4680BC704718
S32D0000F61880B582B000AF786039607B68012B07D13B684FF6FF72934202D10348FFF7E6FF00BF0837BD4680BDF1
S32D0000F640081B002080B500AF4FF6FF710120FFF7E3FF80BD80B483B000AF78600B46FB707B68FA781A707B681E
S32D0000F6684FF4FA725A807B6840F6C4129A807B68034A9A607B6818460C37BD4680BC7047000080BF80B582B098
S32D0000F69000AF7860B84B4FF48072DA60B74B4FF480729A64B54B4FF480721A64B34B4FF480725A64B14B4FF43B
S32D0000F6B88072DA60B04B5B69AF4A43F008035361AE4B5B69AD4A43F480235361AB4B5B69AA4A43F480335361C0
S32D0000F6E0A84B5B69A74A43F400335361A54B1B68A44A43F008031360A24B5B69A14A43F0080353619E4B1B682A
S32D0000F7089D4A43F0080313609A4B4FF480725A62984B4FF480721A62954B4FF480721A61934B4FF480725A6173
S32D0000F730914B4FF480729A618F4B4FF48072DA618D4B4FF480721A638B4B4FF480725A63894B4FF480729A63FD
S32D0000F758874B4FF48072DA63854B4FF480721A64834B4FF480725A64814B4FF480729A647F4B4FF48072DA64BF
S32D0000F780814B4FF480721A607F4B4FF480729A607D4B4FF48072DA607B4B4FF480721A61784B5B69774A43F4BB
S32D0000F7A840735361744B5B69734A43F47F2343F0F0035361734B5B69724A43F01D035361E221786800F030FD94
S32D0000F7D01D21786800F0D2FD0221786800F0CEFD0421786800F0CAFDE021786800F020FD0121786800F0C2FD15
S32D0000F7F86420FFF7CDF9E021786800F015FD0321786800F0B7FD0121786800F00DFD0120FFF7BEF9E621786867
S32D0000F82000F006FD0121786800F0A8FDA021786800F0A4FDFF21786800F0A0FDB021786800F0F6FC1C217868C1
S32D0000F84800F098FD0F21786800F094FD0121786800F090FD3F21786800F08CFD0021786800F088FDEF217868DE
S32D0000F87000F084FD0021786800F080FDB421786800F0D6FC0121786800F078FD9921786800F074FD00217868B1
S32D0000F89800F070FD4521786800F06CFD0221786800F068FD0021786800F064FD0021786800F060FD002178684D
S32D0000F8C000F05CFDB621786800F0B2FC0121786800F054FD0921786800F050FD0021786800F04CFD0E217868A9
S32D0000F8E800F048FD0221786800F044FD0021786800F040FD0021786800F03CFDBA21786800F092FC0F217868E8
S32D0000F91000F034FD6420FFF73FF93A21786800F087FC6021786800F029FD2A21786800F07FFC0021786800F04A
S32D0000F93821FD0021786800F01DFD0121786800F019FD3F21786800F015FD2B21786800F06BFC0021786800F0BA
S32D0000F9600DFD0021786800F009FD0021786800F005FDEF2178680BE000B0044000A0044080F00F4040F00F4094
S32D0000F98800C00440C0F00F4000F0F4FC3621786800F04AFC0021786800F0ECFCF021786800F042FC0421786804
S32D0000F9B000F0E4FCB821786800F03AFC0F21786800F0DCFC0121786800F0D8FC314B1B68304A43F008031360B2
S32D0000F9D86420FFF7DDF83621786800F025FC0021786800F0C7FCF021786800F01DFC0421786800F0BFFC0121EA
S32D0000FA00786800F0BCF91E226F21786800F082F8AF225621786800F0DBF80021786800F00AFA012301221C49AD
S32D0000FA28786800F02BFA2921786800F0FDFB6420FFF7AEF8BE21786800F0F6FB0E21786800F098FCF021786865
S32D0000FA5000F094FC0121786800F090FC0021786800F08CFC0021786800F088FC0F21786800F084FC786800F04C
S32D0000FA7828FA0121786800F0DAF90021786800F0AFF900BF0837BD4680BD00BF40F00F40E848050080B582B0C8
S32D0000FAA000AF78607B680022DA617B6801221A627B680E225A607B681A229A607B6800225A617B6800229A6149
S32D0000FAC87B684FF4A072DA607B68F0221A617B6800221A70786801F075F87B6818460837BD4680BD80B582B03A
S32D0000FAF000AF7860064B1B78002B05D1044B01221A707868FFF7C2FD00BF0837BD4680BD501B002080B58AB0B3
S32D0000FB1802AFF860B9607A607E23009362237A68B968F86800F0AEFD40F24E733B610023FB61FA693B699A421B
S32D0000FB4040DA0023BB61214AFB6913441B781A46BB69934232DAFB6901331C4AD35C002B06D1FF23FB75FF233D
S32D0000FB68BB75FF237B7512E0FB690133154AD35C012B06D1D423FB750023BB7526237B7505E0B523FB75BA2315
S32D0000FB90BB75B0237B757B7DBA7DF97DF86800F0C9F80246FB68DA61F86801F00FF8F86800F048FFBB69013371
S32D0000FBB8BB61C4E7FB690233FB61BAE700BF2037BD4680BD0800002080B58AB002AFF860B9607A6027230093FC
S32D0000FBE095237A68B968F86800F050FD40F2E6333B610023FB61FA693B699A4240DA0023BB61214AFB691344D7
S32D0000FC081B781A46BB69934232DAFB6901331C4AD35C002B06D1FF23FB75FF23BB75FF237B7512E0FB69013327
S32D0000FC30154AD35C012B06D10023FB750023BB7500237B7505E0D423FB750023BB7526237B757B7DBA7DF97D9F
S32D0000FC58F86800F06BF80246FB68DA61F86800F0B1FFF86800F0EAFEBB690133BB61C4E7FB690233FB61BAE7F8
S32D0000FC8000BF2037BD4680BD5807002080B485B000AF78600B46FB70FB78062B29D801A252F823F0C9FC00006B
S32D0000FCA8C1FC0000CFFC0000D7FC0000DFFC0000E5FC0000EDFC00006FF07F43FB6014E00023FB6011E04FF40C
S32D0000FCD07F03FB600DE04FF47F43FB6009E0FF23FB6006E04FF41903FB6002E0044BFB6000BFFB68184614377F
S32D0000FCF8BD4680BC704700BF9999990080B584B000AF786039603B681B0CFB733B681B0ABB733B687B737B7B20
S32D0000FD20BA7BF97B786800F005F8034618461037BD4680BD80B487B000AF7860084611461A460346FB700B4615
S32D0000FD48BB7013467B70FB789B08DBB27B61BB789B08DBB23B617B789B08DBB2FB607B691A033B699B011A4384
S32D0000FD70FB68134318461C37BD4680BC704780B582B000AF78600B46FB70FB7819467868FFF77CFF0346194690
S32D0000FD98786800F004F800BF0837BD4680BD80B582B000AF7860396039687868FFF7A6FF02467B681A62786809
S32D0000FDC000F004FF786800F071FB00BF0837BD4680BD80B582B000AF7860786800F066FB00BF0837BD4680BD4B
S32D0000FDE880B582B000AF78600B46FB70FB7819467868FFF747FF03461946786800F004F800BF0837BD4680BDA3
S32D0000FE1080B582B000AF7860396039687868FFF771FF02467B681A62786800F0CFFE00BF0837BD4680BD80B59F
S32D0000FE3882B000AF78600B46FB70FB7819467868FFF720FF03461946786800F004F800BF0837BD4680BD80B579
S32D0000FE6082B000AF7860396039687868FFF74AFF02467B68DA61786800F0A8FE00BF0837BD4680BD80B586B0DD
S32D0000FE8800AFF860B9607A603B6000237B617B69BA6813441B78002B0FD07B69BA6813441B783A687968F868EB
S32D0000FEB000F086FC7B680C337B607B6901337B61E9E700BF1837BD4680BD80B582B000AF7860FDF781F96721BF
S32D0000FED80120FDF7ECF800210220FDF7E8F8A0210320FDF7E4F850210420FDF7E0F820210520FDF7DCF8202168
S32D0000FF000620FDF7D8F877210720FDF7D4F800210820FDF7D0F800210920FDF7CCF800210A20FDF7C8F804213F
S32D0000FF280B20FDF7C4F87B684FF0FF32DA637B684FF0FF321A6400BF0837BD4680BD000080B586B000AFF860BF
S32D0000FF50B9607A600020FDF7D0F80346FB75FB7D03F00203002B00F0CE80FDF7E3F8E020FDF794F80220FEF7BC
S32D0000FF780FFEFDF7E9F80120FEF70AFEFDF7D6F8A520FDF787F80120FEF702FEFDF7A9F803469BB21B02BB82C6
S32D0000FFA0FDF7A3F803469AB2BB8A1343BB82FDF79CF803469BB21B027B82FDF796F803469AB27B8A13437B8290
S32D0000FFC8BB8A1B09BB827B8A1B097B82FDF7BCF8FB68DB6BB3F1FF3F34D1FB681B6CB3F1FF3F2FD1BA8AFB6894
S32D0000FFF0DA637A8AFB681A647B8AC3F57F630F337B82BB8A184630F0E3FF49A3D3E9002331F048F802460B4679
S32D000100181046194631F024FB0246BB681A607B8A184630F0D1FF42A3D3E9002331F036F802460B46104619462B
S32D0001004031F012FB02467B681A605AE0FB68DA6BBB8AD31A1946F86800F074F80346632B0CDCFB681A6C7B8AE2
S32D00010068D31A1946F86800F069F80346632B01DC012300E00023002B2FD0BA8AFB68DA637A8AFB681A647B8A99
S32D00010090C3F57F630F337B82BB8A184630F098FF23A3D3E9002330F0FDFF02460B461046194631F0D9FA0246C3
S32D000100B8BB681A607B8A184630F086FF1CA3D3E9002330F0EBFF02460B461046194631F0C7FA02467B681A60F7
S32D000100E00FE0BB68164A1A607B68154A1A60FB684FF0FF32DA63FB684FF0FF321A64002310E001230EE0BB68A0
S32D000101080D4A1A607B680C4A1A60FB684FF0FF32DA63FB684FF0FF321A64002318461837BD4680BDAFF30080B1
S32D00010130144001144001B43F1EE0011EE001AE3F000080BF80B483B000AF786039603B68002B02DA3B685B4268
S32D000101583B603B6818460C37BD4680BC704780B584B000AF786039600023FB60786800F05CFAFB683A6813441A
S32D000101801B78002B12D07B6859697B689869FB683A6813441B780246786800F0F6FA786800F05BFAFB68013374
S32D000101A8FB60E6E700BF1037BD4680BD80B590B000AF7860396007F10C033A680649184634F062FF07F10C0343
S32D000101D019467868FFF7C7FF00BF4037BD4680BDF448050080B582B000AF78603960786800F01FFA396878685D
S32D000101F8FFF7B5FF786800F003FA00BF0837BD4680BD80B582B000AF78603960786800F00CFA39687868FFF74F
S32D00010220C9FF786800F0F0F900BF0837BD4680BD80B483B000AF78600B46FB704D4B1B684C4A23F00803136004
S32D000102484B4B1B684A4A23F480231360484B1B68474A43F480331360454B1B68444A23F440731360414B1B68BC
S32D00010270404A23F4435323F0300313603E4B1A68FB785B0203F400733B4913430B603A4B1A68FB785B101B02E3
S32D0001029803F48073364913430B60344B1A68FB789B101B0103F01003304913430B602F4B1A68FB78DB105B01DC
S32D000102C003F020032B4913430B602A4B1A68FB781B119B0103F04003264913430B60254B1A68FB785B11DB017F
S32D000102E8DBB2224913430B60204B1A68FB789B111B0303F480531D4913430B601B4B1A6897F90330DB115BB26F
S32D000103105B0303F40053174913430B60164B1B68154A23F400331360134B1B68124A43F4003313600F4B1B68FE
S32D000103380E4A43F0080313600D4B1B680C4A43F440731360094B1B68084A43F4435343F030031360064B1B685C
S32D00010360054A43F48023136000BF0C37BD4680BC704700BF80F00F4040F00F4080B483B000AF78600B46FB7033
S32D00010388464B1B68454A23F008031360444B1B68434A43F480331360414B1B68404A43F4802313603E4B1B6824
S32D000103B03D4A23F4407313603A4B1B68394A23F4435323F030031360374B1A68FB785B0203F400733449134358
S32D000103D80B60334B1A68FB785B101B0203F480732F4913430B602D4B1A68FB789B101B0103F01003294913436B
S32D000104000B60284B1A68FB78DB105B0103F02003244913430B60234B1A68FB781B119B0103F040031F49134350
S32D000104280B601E4B1A68FB785B11DB01DBB21B4913430B60194B1A68FB789B111B0303F48053164913430B60D5
S32D00010450144B1A6897F90330DB115BB25B0303F40053104913430B600F4B1B680E4A23F4003313600C4B1B6852
S32D000104780B4A43F400331360084B1B68074A43F008031360064B1B68054A23F48023136000BF0C37BD4680BCBA
S32D000104A0704700BF80F00F4040F00F4080B586B000AF78607B6800225A617B6800229A617B681B6AFB60FB68A1
S32D000104C8FB72FB681B0ABB72FB681B0CDBB203F003037B722A217868FFF7A6FE00217868FFF748FF00217868E2
S32D000104F0FFF744FF01217868FFF740FF3F217868FFF73CFF2B217868FFF792FE00217868FFF734FF002178681F
S32D00010518FFF730FF00217868FFF72CFFEF217868FFF728FF2C217868FFF77EFE314B1B68304A23F4407313600B
S32D000105402F4B1B682E4A23F47F2323F0F00313602C4B1B682B4A23F01D031360274B1A687B681B6B25491343AF
S32D000105680B60254B1A687B685B6B234913430B60224B1A687B689B6B204913430B601E4B1B681D4A23F00803BE
S32D0001059013601A4B1B68194A43F48023136000237B617B69EF2B19D800233B613B69B3F5A07F0FD2114B1B6859
S32D000105B8104A23F4003313600E4B1B680D4A43F4003313603B6901333B61EBE77B6901337B61E2E7084B1B6814
S32D000105E0074A43F008031360044B1B68034A23F48023136000BF1837BD4680BD40F00F4080F00F40C0F00F4013
S32D0001060880B483B000AF78607B689B69002B07DD7B685B695A1C7B685A617B6800229A6100BF0C37BD4680BCE3
S32D00010630704780B582B000AF78607B685A697B685B689A4205DB7B6800225A617868FFF72DFF00BF0837BD462B
S32D0001065880BD80B582B000AF78607B689B695A1C7B689A617B689A697B689B689A4205D17868FFF7C5FF786815
S32D00010680FFF7D7FF00BF0837BD4680BD80B588B000AFF860B9607A603B60FB681B78022B03D0FB681B78032B25
S32D000106A811D17B68FB61BA6AFB691344013BBB61FB68DA68BB68D31A3B613B683A69D31A01337B610DE0BB6827
S32D000106D0FB613A68FB691344013BBB617B687B61BA6A7B691344013B3B612A21F868FFF79FFDFB691B0ADBB2A1
S32D000106F803F00F03DBB21946F868FFF73BFEFB69DBB21946F868FFF735FEBB691B0ADBB203F00F03DBB21946B3
S32D00010720F868FFF72BFEBB69DBB21946F868FFF725FE2B21F868FFF77BFD7B691B0ADBB203F00F03DBB2194601
S32D00010748F868FFF717FE7B69DBB21946F868FFF711FE3B691B0ADBB203F00F03DBB21946F868FFF707FE3B699C
S32D00010770DBB21946F868FFF701FE2C21F868FFF757FD00BF2037BD4680BD80B584B000AFF860B9607A60FB70FE
S32D000107987A6813465B0013449B00991CBA6813461B011344DA1CFB78F86800F005F800BF1037BD4680BD00000B
S32D000107C080B58EB002AFF860B9607A60FB70FB780A2B06D1F868FFF72CFFF868FFF714FFF2E0FB787D2B02D800
S32D000107E8FB781F2B01D82023FB70FB78203BFB70112300930C237A68B968F868FFF742FFFA7813469B00134418
S32D000108106F4AD35C3B75FA7813469B00134401336B4AD35C7B75FA7813469B0013440233674AD35CBB75FA78E8
S32D0001083813469B0013440333634AD35CFB75FA7813469B00134404335F4AD35C3B760023BB62BB6A062B00F3BE
S32D00010860A180F86800F050F9F86800F0B3F8002387F82F3000237B627B6A042B35DC07F114027B6A13441B78B1
S32D0001088803F00103002B14BF01230023FB76FB7E002B11D097F82F3083F00103DBB2002B03D0F86800F0CAF80D
S32D000108B002E0F86800F08EF8F86800F08BF80DE097F82F30002B03D0F86800F01DF902E0F86800F07FF8F86846
S32D000108D800F07CF8FB7E87F82F307B6A01337B62C6E797F82F30002B03D0F86800F008F902E0F86800F06AF8C2
S32D00010900F86800F067F8002387F82F3000233B623B6A042B42DC07F114023B6A13441B7803F00103002B14BFD4
S32D0001092801230023BB76BB7E002B11D097F82F3083F00103DBB2002B03D0F86800F07EF802E0F86800F042F8C1
S32D00010950F86800F03FF80DE097F82F30002B03D0F86800F0D1F802E0F86800F033F8F86800F030F8BB7E87F872
S32D000109782F3007F114023B6A13441B785B08D9B207F114023B6A13440A461A703B6A01333B62B9E7BB6A013313
S32D000109A0BB625AE7F86800F0AFF8002387F82F300123FB61FB69232B06DCF86800F00AF8FB690133FB61F5E79C
S32D000109C83037BD4680BD00BF400B002080B483B000AF7860174B1B68164A43F480331360154B1B68144A23F04B
S32D000109F008031360114B1B68104A43F4802313600E4B1B680D4A23F4003313600B4B1B680A4A43F400331360DA
S32D00010A18094B1B68084A43F008031360054B1B68044A23F48023136000BF0C37BD4680BC704700BF40F00F4051
S32D00010A4080F00F4080B483B000AF78602B4B1B682A4A43F480331360294B1B68284A23F008031360254B1B6823
S32D00010A68244A43F480231360224B1B68214A23F440731360204B1B681F4A23F47F2323F0F00313601D4B1B6898
S32D00010A901C4A23F01D031360184B1A687B685B6A164913430B60164B1A687B689B6A144913430B60134B1A68B5
S32D00010AB87B68DB6A114913430B600E4B1B680D4A23F4003313600B4B1B680A4A43F400331360094B1B68084AA9
S32D00010AE043F008031360054B1B68044A23F48023136000BF0C37BD4680BC704740F00F4080F00F40C0F00F40B3
S32D00010B0880B483B000AF78602B4B1B682A4A43F480331360294B1B68284A23F008031360254B1B68244A43F474
S32D00010B3080231360224B1B68214A23F440731360204B1B681F4A23F47F2323F0F00313601D4B1B681C4A23F0FB
S32D00010B581D031360184B1A687B681B6B164913430B60164B1A687B685B6B144913430B60134B1A687B689B6BFA
S32D00010B80114913430B600E4B1B680D4A23F4003313600B4B1B680A4A43F400331360094B1B68084A43F00803CA
S32D00010BA81360054B1B68044A23F48023136000BF0C37BD4680BC704740F00F4080F00F40C0F00F4080B485B0BF
S32D00010BD000AF78607B681B6AFB60FB68FB72FB681B0ABB72FB681B0CDBB203F003037B727B6800225A627B6886
S32D00010BF800229A627B680022DA627B6800221A637B6800225A637B6800229A637B681A6BFB7A5B0203F4007385
S32D00010C201A437B681A637B681A6BFB7A5B101B0203F480731A437B681A637B685A6BFB7A9B101B0103F01003F2
S32D00010C481A437B685A637B685A6BFB7ADB105B0103F020031A437B685A637B685A6BFB7A1B119B0103F04003EE
S32D00010C701A437B685A637B685A6BFB7A5B11DB01DBB21A437B685A637B685A6BFB7A9B111B0303F480531A435B
S32D00010C987B685A637B685A6B97F90B30DB115BB25B0303F400531A437B685A637B685A6BBB7A9B0303F4804347
S32D00010CC01A437B685A637B685A6BBB7A5B10DB039BB21A437B685A637B685A6BBB7A9B101B0403F480331A43EA
S32D00010CE87B685A637B685A6BBB7ADB105B0403F400331A437B685A637B685A6BBB7A1B119B0403F480231A4350
S32D00010D107B685A637B685A6BBB7A5B11DB0403F400231A437B685A637B689A6BBB7A9B1103F001031A437B68D5
S32D00010D389A637B689A6B97F90A30DB115BB29B0003F004031A437B689A637B689A6B7B7ADB0003F008031A43FF
S32D00010D607B689A637B689A6B7B7A5B101B0103F010031A437B689A637B68DB69FB60FB68FB72FB681B0ABB72D6
S32D00010D88FB681B0CDBB203F003037B727B685A6AFB7A5B0203F400731A437B685A627B685A6AFB7A5B101B02BC
S32D00010DB003F480731A437B685A627B689A6AFB7A9B101B0103F010031A437B689A627B689A6AFB7ADB105B0126
S32D00010DD803F020031A437B689A627B689A6AFB7A1B119B0103F040031A437B689A627B689A6AFB7A5B11DB0160
S32D00010E00DBB21A437B689A627B689A6AFB7A9B111B0303F480531A437B689A627B689A6A97F90B30DB115BB223
S32D00010E285B0303F400531A437B689A627B689A6ABB7A9B0303F480431A437B689A627B689A6ABB7A5B10DB03A2
S32D00010E509BB21A437B689A627B689A6ABB7A9B101B0403F480331A437B689A627B689A6ABB7ADB105B0403F4C1
S32D00010E7800331A437B689A627B689A6ABB7A1B119B0403F480231A437B689A627B689A6ABB7A5B11DB0403F4C1
S32D00010EA000231A437B689A627B68DA6ABB7A9B1103F001031A437B68DA627B68DA6A97F90A30DB115BB29B00C4
S32D00010EC803F004031A437B68DA627B68DA6A7B7ADB0003F008031A437B68DA627B68DA6A7B7A5B101B0103F07E
S32D00010EF010031A437B68DA6200BF1437BD4680BC7047000080B582B000AF786039607B68012B07D13B684FF6EE
S32D00010F18FF72934202D10348FEF7BCFD00BF0837BD4680BD0C1B002080B500AF4FF6FF710120FFF7E3FF80BD44
S32D00010F4080B582B000AF7860164B03F580535B6B144A43F0400302F580525363124B4FF400725A62104B4FF4E3
S32D00010F6800721A620F4B14225A700E4B1B7ADBB20C4A43F00103DBB213720A4B80229A7002212B20FCF71CF882
S32D00010F903D212A20FCF718F87B6818460837BD4680BD00BF0070044000C004400060064080B582B000AF7860BC
S32D00010FB839607B68012B07D13B684FF6FF72934202D10348FFF7B8FF00BF0837BD4680BD541B002080B500AFE0
S32D00010FE04FF6FF710120FFF7E3FF80BD80B582B000AF78600B46FB707B68FA7811461846FEF7C6F87B6818464F
S32D000110080837BD4680BD000080B582B000AF786039607B68012B08D13B684FF6FF72934203D120210348FFF747
S32D00011030DDFF00BF0837BD4680BD00BF581B002080B500AF4FF6FF710120FFF7E1FF80BD80B483B000AF78606A
S32D000110587B6800221A707B6818460C37BD4680BC7047000080B483B000AF78603960044A3B68136000BF0C3773
S32D00011080BD4680BC704700BF5C1B002080B582B000AF3248FCF7AAF90346FB71304AFB791370304B01221A7081
S32D000110A82F4B1B78022B33D0022B4FDC002B02D0012B14D04AE0FB79FF2B44D1284B01221A70284B00221A705B
S32D000110D0264B1B785A1CD1B2244A11701946244AFB79535433E0214B1B785A1CD1B21F4A117019461E4AFB79ED
S32D000110F853541C4B1B780D2B27D11C4B1B68194A1278114618489847154B02221A701CE0FB79FF2B10D1124BA5
S32D0001112001221A70114B00221A70104B1B785A1CD1B20E4A117019460D4AFB79535409E00A4B00221A70084B1D
S32D0001114800221A7002E000BF00E000BF00BF0837BD4680BD00A00640731B0020721B0020711B0020701B0020B6
S32D00011170601B00205C1B002080B582B000AF78607B681846FFF764FF7B6811491846FFF76DFF7B684FF0FF3246
S32D000111985A600E4B4FF000021A600D4B4FF000021A600C4B4FF000021A600B4B00221A600A4B00221A700A4BED
S32D000111C000221A707B6818460837BD4680BD00BFED110100801B0020841B0020881B00208C1B0020901B002007
S32D000111E8911B002080B582B000AF78600B46FB701D4B1B78002B32D07B6801331B781A067B6802331B781B04A6
S32D000112101A437B6803331B781B0213437A680432127813431A46134B1A607B685A79124B1A707B6806331B78B7
S32D00011238AA2B0CBF01230023DAB20E4B1A700E4B01221A700B4B1B78002B08D00B4800F049F80B4B1B680A4A8E
S32D0001126023F40053136000BF0837BD4680BD00BF7C1B00208C1B0020901B0020911B0020921B0020941B0020D4
S32D00011288C0F00F4080B582B000AF786039607B68012B07D13B684FF6FF72934202D10348FFF766FF00BF083725
S32D000112B0BD4680BD741B002080B500AF4FF6FF710120FFF7E3FF80BD80B483B000AF7860054B00221A60044B28
S32D000112D800225A607B6818460C37BD4680BC7047941B002080B584B000AF7860154B1B68002B21D00023FB6055
S32D00011300124B5B68FA689A4214DA114AFB6852F82330002B0AD00E4AFB6852F823301846FCF7ABFA03461A461B
S32D000113280A4B1A70FB680133FB60E5E7054B00225A60044B00221A60044B1B7818461037BD4680BD941B00204C
S32D00011350A01B00209C1B002080B582B000AF786039607B68012B07D13B684FF6FF72934202D10348FFF7A8FF65
S32D0001137800BF0837BD4680BD941B002080B500AF4FF6FF710120FFF7E3FF80BD80B483B000AF78600A4B03F52F
S32D000113A080531B6B084A43F0010302F580521363064B5B68054A43F03203536000BF0C37BD4680BC704700BFC8
S32D000113C80070044000000A4003460846194631F02FBB00BF26F0D6BC012838BF012010B50446204632F0B8FD03
S32D000113F000B110BD27F036FC08B18047F5E7042026F08EFD024B034A0349036027F09AFBA8770500297C030025
S32D00011418847705002DE9F04FD04FD14D3968DFF84493D14B8E68DFF84483DFF844B3002483B00122C5E900948A
S32D00011440C5E90244C5E90444AC6105F11C001A7001F092F83B682E624FF0FF3A5B68C8F80090C8E90144C8E90A
S32D000114680344C8E90544C5F824A008F11C00C5F800B0019301F07CF8019BBE4EC8F820303B68C6F80090C6E9C0
S32D000114900144DB68C8F824A0C6E90344C6E9054406F11C00C8F800B0DFF8D492019301F063F8019BDFF8CC82D2
S32D000114B8C6F800B0C6E9083AA9F10406484608F1140A12F0B3F9C6E91F44C6E9214429467467A6F8784049F8A8
S32D000114E0048C4846C6F804A012F02EF9A64C204612F0A0F9A54B44F8083C143323600023C4E91E33C4E92033E6
S32D000115082367A4F8743044F8043C20469749083C12F016F99C4DA5F10409284612F086F90023C9E91F33C9E97F
S32D000115302133924945F8048C2846C9F804A0C9F87430A9F8783012F0FFF8DFF848B2ABF10405584612F06EF999
S32D000115580023C5E91F33C5E9213386494BF8048CC5F804A058466B67A5F8783012F0E8F8D9F81030864DDFF8EA
S32D000115801CB2A66743F40053C9F810303B68C9F8746000249E68AC61C5E900B4C5E90244C5E9044405F11C0009
S32D000115A800F0E6FFDFF8F0813B682E624FF0FF39DFF8E8A15B68C5F800A0C5F82490C8F800B0C8E90144C8E945
S32D000115D00344C8E9054408F11C00019300F0CCFF019B714EC8F820303B68C6F800B06F4FD3F80CB0C8F8249012
S32D000115F8C8F800A0C6E90144C6E90344C6E9054406F11C0000F0B4FFDFF89C81C6F800A0C6E908B9384612F08A
S32D0001162009F9294608F114093D1FC5E91D44C5E92044C5E9224447F8048C384685F87C40C5F8049012F0E0F8D2
S32D000116485A4C204612F0F2F8594B44F8083CA4F108061433B3600023C6E91E33C6E92133C6E923334C4986F81C
S32D0001167080302046736012F0C7F8504F3C1F384612F0D8F80023C4E91D33C4E92033C4E92233454947F8048CD8
S32D000116983846C4F8049084F87C3012F0B1F8DFF818A1AAF10407504612F0C0F80023C7E91D33C7E92033C7E926
S32D000116C0223339494AF8048CC7F80490504687F87C3012F099F83B4922690B68B56742F4005201332261656702
S32D000116E80B6003B0BDE8F08F354B7360224812F0D9F826F04DFC334B7B602F4812F0D2F826F046FC2F4B636071
S32D000117102A4812F0CBF826F03FFC2C4BB360254812F0C4F826F038FC284B6B601F4812F0BDF826F031FC244B15
S32D000117386B60164812F0B6F826F02AFC204BC9F80430114812F0AEF826F022FC1C4BA3600B4812F0A7F826F064
S32D000117601BFC00BFB40D00204C2D00204C700500200D0020FC2C002008670500242D0020982F0020246F050050
S32D00011788F42D0020D4680500802E00200C2F0020C42D00208C700500742D0020486705009C2D0020D8310020EE
S32D000117B0546F05002830002004690500B8300020483100200C2C00202468050034680500064A1368591C10B528
S32D000117D8044611600BB1204610BDFFF71BFE204610BD00BF0C2C0020114A1368591E022B10B50446116001D014
S32D00011800204610BD0D481BF0AFFD0D481BF0ACFD0C481BF0A9FD0C481BF0E2FD0B481BF0DFFD0B481BF0DCFDBD
S32D00011828204610BD26F03EFD26F07AFDE4E700BF0C2C0020942F00207C2E0020082F0020D4310020B430002071
S32D0001185044310020704700BF10B5044626F096FA204610BD044A0B6812680360934202D01A6801321A6070474B
S32D000118780C1C00200160704710B5054C206800B110BD02460349204627F02CFF206810BD141C00201C4905007A
S32D000118A0004870471C490500426870B50546EAB18368C3B1304E002403E0AB680134A34210D952F8240000286B
S32D000118C8F8D04368591E012B4160F2D103685B68B34238D126F056FA6A68EAE712B1104626F052FAEA68EAB1DA
S32D000118F0AB68C3B1204E002403E0AB680134A34210D952F824000028F8D04368591E012B4160F2D103685B6879
S32D00011918B3421AD126F036FAEA68EAE712B1104626F032FA2B6963B10024185910B126F02BFA2B690434182CB3
S32D00011940F7D113B1184626F023FA284670BD9847C6E79847E4E726F0A9FC26F0E5FCBFE726F0A4FC26F0E0FC8A
S32D00011968DAE7013102D126F02BFCFAE726F010FB5918010038B50A4B05681B689D42044604D02B685A1E012B73
S32D000119902A6001D0204638BD2846FFF785FF284626F0F4F9204638BD0C1C00200F4B1A680B68934270B50D46DA
S32D000119B8044602D01968013119602668B24204D03268511E012A316002D02360204670BD3046FFF765FF30466F
S32D000119E026F0D4F92B682360204670BD0C1C0020002A00F0E5802DE9F04F0C6883B00546164624B9A94B1C688D
S32D00011A0801341C600C60AB68671E013BBB425CD204F103086FF06043984534BF4FEA880A4FF0FF3A5046D5F81B
S32D00011A3004B027F01FF98146A86868B16B6803EB800CA9F10402043BACF1040C53F8041F42F8041F9C45F9D165
S32D00011A58804507D9A8EB0002920009EB8000002132F03CFF5046D5F80CA027F0FFF8D5F808C00346BCF1000FEA
S32D00011A800CD0EA6802EB8C0E011F043AAEF1040E52F8040F41F8040F7245F9D1C44509D2A8EB0C0203EB8C004A
S32D00011AA892000021019332F019FF019BEB60C5E90198BBF1000F02D0584626F065F9BAF1000F02D0504626F089
S32D00011AD05FF9D5F80480736858F827C001337360BCF1000F43D0724A1168002938D06F480EE0D2F804E0DEF8C7
S32D00011AF8003023B9036801330360CEF800309C4269D052F8081F39B30B681BB90368013303600B609C42E8D1FC
S32D00011B2051680B6823B9614A1368013313600B605C1E58F824309BB130460DF04FF8814658F82400D9F80430F2
S32D00011B480133C9F8043043685A1E012B426068D048F8249058F827C0DCF804305A1E012BCCF804202DD0AA684E
S32D00011B7048F827600AB30024EB68DFF83881274604E0AA680F600134A24216D953F82400A60003EB8401002831
S32D00011B98F5D0426802F1FF3C012AC0F804C0ECD103685B68434508D126F0ECF8EB689919E3E703B0BDE8F08FEE
S32D00011BC070479847EB689919DBE7DCF80030394A5B689342604626D126F0D8F8C7E70B6823B9324A13680133CF
S32D00011BE813600B605C1E58F82430002BB4D0304604F04EFC814658F82400D9F804300133C9F8043043685A1EE3
S32D00011C10012B4260A0D10368264A5B6893420BD126F0B4F898E79847A1E70368214A5B689342F5D098478FE7E7
S32D00011C3898478DE726F036FB26F072FBBEE726F031FB26F06DFB8EE726F02CFB484626F09BF826F08DFF26F05A
S32D00011C6025FB26F061FB77E726F020FB26F05CFB72E7013115D126F0A7FA013105D126F0A3FA013103D126F0C8
S32D00011C889FFA26F085F926F083F926F049FB26F07FF9013103D126F093FA26F079F926F077F900BF101C0020C4
S32D00011CB03C490500591801002DE9F041374C2378BFF35B8FDB0707460E4615464AD5344B1C68002C3AD0334857
S32D00011CD89C460BE023B90168013101600B461160013B9D4243D05CF8084F5CB3236823B90268013202601346CF
S32D00011D002260013BDCF804209D421368E6D1002B3BD0013BFA6852F8251051B1A6B13368214A5B68934230462D
S32D00011D2835D1BDE8F04126F02DB87168481C7060581C42F8256003D00231716042F82360BDE8F081FB6853F81D
S32D00011D502520002AE2D172680132726043F82560BDE8F081204626F03FFF0028AFD0204626F056FFABE722683F
S32D00011D7822B90A4B1A6801321A6022602B46551EC4E706490B6801330B601360BDE7BDE8F0411847081C0020DB
S32D00011DA03C490500101C00205918010003682BB903490A6801320A6013460260581E7047101C00202DE9F04F99
S32D00011DC8C54C0160302389B006468360C0220021204632F083FDC14B746000211846C02232F07CFDBE4DBF4AC4
S32D00011DF00024C6E90302C2E90054C2E90244C2E90444FFF74DFD02882A80B94801232246214605F0FBFDB64AB4
S32D00011E18B6493046FFF7E8FDB548012127F00EFDB34AB4493046FFF7DFFDB34CB348B44A846001230021C4E9FA
S32D00011E4000234360B14B2174C4E90211C4E90511C4E90711A18484F86410036001F07EF8A84AAB493046FFF7A3
S32D00011E68C3FDAA4AAA4B1360012151603046A949FFF7BAFDA84AA94B1360012151603046A749FFF7B1FDA74C1E
S32D00011E90A74B0122C4E90032FFF7F2FCA060A54922463046FFF7A4FDDFF88CA2A34AA4480123CAE90023C0E967
S32D00011EB8013A0022A14BAAF81020CAE90222CAE90522CAE90722CAE90922CAE90B228AF81220CAF834208AF849
S32D00011EE043200360114600F0CDFB954A96493046FFF77EFDDFF8549295480123C0E90139C9F80430934BC9F824
S32D00011F0800300022924BA9F81020C9E90222C9E90522C9E90722C9E90922C9E90B2289F81220C9F8342089F81B
S32D00011F3043200360114600F059FB854A87493046FFF756FD864A874B13600123864953603046FFF74DFD854A83
S32D00011F58854B13600123854953603046FFF744FD834D8449296000230122C5E90123C5E90333C5E90533C5E90F
S32D00011F800733C5E90933C5E90B33C5E90D33C5E90F33C5E91133C5E91333C5E91533C5E91733C5E91933C5E9C8
S32D00011FA81B33C5E91D33EB677348C5E920332946C5E92233C5E92433C5E92633C5E92833C5E92A33C5E92C3311
S32D00011FD0C5E92E33C5F8C03085F8C43012F0DAF9674A68493046FFF703FD674A674B136001236749536030463F
S32D00011FF8FFF7FAFC654A664B13600123654953603046FFF7F1FC644801210AF0C1FB624A62493046FFF7E8FCF2
S32D000120206148012105F0C2FC5F4A60493046FFF7DFFC5F48012127F01DFC5D4A5D493046FFF7D6FCDFF870B1FE
S32D000120485C480123CBF8043043605B4BCBF800305A4BC0F808B000210360CBE90211CBE90511CBE90711CBE9C4
S32D0001207009118BF810108BF8241100F0FDFF4F4A51493046FFF7B4FC504A514B13600123504953603046FFF70C
S32D00012098ABFC4F4A4F4B136001234F4953603046FFF7A2FC4D4C4E4B236001236360FFF7E3FBA0604B492246E7
S32D000120C03046FFF795FCDFF828814A480123C8F804304360484BC8F8003000228EE000BFC4290020D42800202C
S32D000120E8AC210020BC280020B8210020842B002094290020F42C0020241D0020401C0020484A0500EC58050036
S32D00012110B82B0020842A0020C4690500582C0020942A0020006A0500542C0020AC290020D0580500AC2B0020F3
S32D0001213844200020DC490500E41C002044590500C82B002088200020F01C0020CC49050010590500C42B00206A
S32D00012160881C002094590500C02B0020981C0020AC590500BC2B0020B41E0020306A0500A81C0020502C002099
S32D00012188581C0020C4590500B42B0020681C0020306B05004C2C0020201C0020B02B0020D8230020882B002052
S32D000121B0A0290020F82C00208C1D00204C1C0020584A0500EC630500F82B00208C2A0020E8710500B82C00200C
S32D000121D89C2A002024720500B42C0020B8290020D0630500EC2B0020CC200020FC1C0020FC490500AC4BC0F8AA
S32D00012200088003601146C8E90222C8E90522C8E90722C8E90922C8E90B22C8E90D2288F81020C8F83C2088F800
S32D000122286C2000F027FBA14AA1493046FFF7DCFBA04FA14801237B604360A04B3B6000229F4B87600360114624
S32D00012250C7E90222C7E90522C7E90722C7E90922C7E90B22C7E90D223A74FA6387F86C2000F0B8FA924A9549D2
S32D000122783046FFF7B9FB944A944B13600123944953603046FFF7B0FB924A934B13600123924953603046FFF7D1
S32D000122A0A7FB914C9149216000230122C4E90123C4E90333C4E90533C4E90733C4E90933C4E90B33C4E90D33AE
S32D000122C8C4E90F33C4E91133C4E91333C4E91533C4E91733C4E91933C4E91B33C4E91D33E3678148C4E9203324
S32D000122F02146C4E92233C4E92433C4E92633C4E92833C4E92A33C4E92C33C4E92E33C4F8C03084F8C4301CF0F8
S32D000123189FFB754A75493046FFF766FB744A754B13600123744953603046FFF75DFB734A734B1360012373499B
S32D0001234053603046FFF754FB7148012110F0DCFE6F4A70493046FFF74BFB6F4A6F4B136001236F49536030463C
S32D00012368FFF742FB6D4A6E4B136001236D4953603046FFF739FB6C4A6C4B136001236C4953603046FFF730FB00
S32D000123906A4A6B4B136001236A4953603046FFF727FB694A02A93046CDE9022ACDE9049BCDE9068701F058FD95
S32D000123B8F36864480193FFF7F5FC019B604A43F82020F36860480193FFF7ECFC019B43F820A05E48D6F80CA087
S32D000123E0FFF7E4FC4AF820905B48D6F80C90FFF7DDFC49F820505948F568FFF7D7FC45F820B02D48F568FFF7DD
S32D00012408D1FC45F820802F48F568FFF7CBFC45F820703648F568FFF7C5FC45F82040304609B0BDE8F08F0446D1
S32D000124300B4601333AD1204625F0C6FE0D4604461F48FFF707FA2B46F3E70D4604464448FFF700FA2B46ECE70B
S32D000124580D4604464148FFF7F9F92B46E5E70D4604463F48FFF7F2F92B46DEE70D4604463C48FFF7EBF92B4663
S32D00012480D7E70D4604463A48FFF7E4F92B46D0E70D4604463748FFF7DDF92B46C9E70D4604460448FFF7D6F99E
S32D000124A82B46C2E725F074FD44640500FC1C0020082C00203C210020081D0020EC49050010640500042C002067
S32D000124D0901C002094640500002C0020A01C0020AC640500FC2B00207C1F002054720500BC1C0020B02C002016
S32D000124F8601C0020C4640500F42B0020701C002054730500AC2C0020301C0020F02B0020781C0020A04D0500F0
S32D00012520B02A0020801C0020484D0500A82A0020141D0020744D0500AC2A00201C1D00201C4D0500A42A002088
S32D00012548241D0020B82B0020C82B0020C42B0020502C0020F82B0020F01C0020E41C0020AC290020401C002042
S32D00012570B82900204C1C0020F8B5174E3368002204460260D3B1154D2A6822609A420AD0134E3378BFF35B8FE0
S32D00012598DB0706D52B6823601A6801321A602046F8BD304626F01CFB0028F3D0304626F033FBEFE7094F074D2D
S32D000125C002213846FFF7FEFB0748376039462F60FFF754F93368D7E70C1C0020181C00201C1C0020D01C0020CC
S32D000125E8B828002010B50446806830B32E234374A3681E492C229A741D4AA368106818630022C3E90212C3E921
S32D000126100512C3E90712C3E90912DA62174AA3681268586302F10A0C531EC2F10100A268C1180A4413F8011F91
S32D0001263882F838106345F6D110BD4420FEF7CCFE0D4AA0600023C0E90023C0E90233C0E90533C0E90733C0E9C1
S32D000126600933C0E90B3303828374436380F84330C0E700BF34700500187D0500300D0020CC49050010B50446EC
S32D00012688806830B32E234374A3681E492C229A741D4AA368106818630022C3E90212C3E90512C3E90712C3E907
S32D000126B00912DA62174AA3681268586302F10A0C531EC2F10100A268C1180A4413F8011F82F838106345F6D148
S32D000126D810BD4420FEF780FE0D4AA0600023C0E90023C0E90233C0E90533C0E90733C0E90933C0E90B330382F6
S32D000127008374436380F84330C0E700BF34700500187D0500300D0020DC49050010B504468068084B236010B164
S32D0001272803685B6898472046FFF790F8204610BD2046FFF78BF825F02BFC00BF1059050010B5044680680B4BC9
S32D00012750236010B103685B6898472046FFF77AF8204625F013FB204610BD2046FFF772F8204625F00BFB25F023
S32D000127780FFCF9E71059050010B504468068084B236010B103685B6898472046FFF75EF8204610BD2046FFF7FD
S32D000127A059F825F0F9FB00BF4459050010B5044680680B4B236010B103685B6898472046FFF748F8204625F09A
S32D000127C8E1FA204610BD2046FFF740F8204625F0D9FA25F0DDFBF9E74459050038B58368044613B31E491F4DC8
S32D000127F008681F4998630022C3E90712C3E90912C3E90B129D60DA605A632E25A2685D6118492C259D61D0637E
S32D000128180968A2684B1E3C3201F10A0013F8011F42F8041F8342F9D138BD7020FEF7D4FD0F49A0600022C0E9BE
S32D000128400012C0E90222C0E90522C0E90722C0E90922C0E90B22C0E90D2203460274C26380F86C20C2E700BF16
S32D00012868187D050034700500C8A70500300D0020EC49050038B58368044613B31E491F4D08681F499863002243
S32D00012890C3E90712C3E90912C3E90B129D60DA605A632E25A2685D6118492C259D61D0630968A2684B1E3C3280
S32D000128B801F10A0013F8011F42F8041F8342F9D138BD7020FEF788FD0F49A0600022C0E90012C0E90222C0E934
S32D000128E00522C0E90722C0E90922C0E90B22C0E90D2203460274C26380F86C20C2E700BF187D050034700500BB
S32D00012908C8A70500300D0020FC49050010B504468068084B236010B103685B6898472046FEF794FF204610BDC9
S32D000129302046FEF78FFF25F02FFB00BF1064050010B5044680680B4B236010B103685B6898472046FEF77EFFA2
